:020000040800F2
:1000000050040020951400081D1400081F14000857
:100010002114000823140008251400080000000023
:10002000000000000000000000000000271400088D
:1000300029140008000000002B1400082D140008EB
:10004000B1140008B5140008B9140008BD14000864
:10005000C1140008C5140008C9140008CD14000814
:10006000D1140008D5140008D9140008DD140008C4
:10007000E1140008E5140008E9140008ED14000874
:10008000F1140008F5140008F9140008000000003D
:10009000000000000000000000000000FD14000847
:1000A0000115000805150008091500080D150008C0
:1000B0000000000000000000000000001115000812
:1000C00015150008191500081D1500082115000850
:1000D00025150008291500082D150008000000004E
:1000E0003115000835150008000000000000000070
:1000F00000000000000000000000000039150008AA
:1001000000000000000000003D1500080000000095
:100110000000000000000000411500080000000081
:1001200045150008491500084D150008511500082F
:10013000551500080000000000000000000000004D
:1001400000000000000000000000000000000000AF
:10015000591500085D1500086115000865150008AF
:10016000000000000000000000000000000000008F
:10017000000000000000000000000000000000007F
:10018000691500086D15000800000000000000005F
:1001900000000000711500080000000000000000D1
:1001A000000000000000000000000000000000004F
:1001B00000000000000000000000000075150008AD
:1001C000791500087D15000838B5040001D101201B
:1001D00032BD00F037F818B900F030F800F06DFAD1
:1001E000FFE702206870211D206800F015F901204A
:1001F0006870002032BD38B5040001D1012032BD45
:1002000000F020F818B900F019F800F089FAE8E7D2
:1002100010B500F01BF800F04FF92068DFF834103B
:10022000884205D1DFF830100A6842F400420A60C3
:10023000016841F001010160002010BD002129701A
:100240002046704704F1380568787047044601225B
:1002500020687047000001404400014070B500F084
:1002600065F801D1022070BD00F067F832B1042AB0
:1002700017D0082A28D00C2A39D04AE030682946FD
:1002800000F024F93068816941F0080100F04AF873
:1002900021F00401816131688A69286902438A6119
:1002A00037E03068294600F0DDF83068816941F4B4
:1002B000006100F037F821F4806100F033F82A691A
:1002C00041EA0221816124E03068294600F020F9EA
:1002D0003068C16941F0080100F020F821F0040104
:1002E000C1613168CA6928690243CA6111E0306896
:1002F000294600F038F93068C16941F4006100F026
:100300000DF821F4806100F009F82A6941EA022120
:10031000C161012060700020207070BDC161306833
:10032000C16970478161306881697047064606F18E
:1003300038040D46207801287047012121700220E1
:100340006070704738B500F05CF801D1022032BD12
:1003500001222270022060702A68DFF84C02936844
:10036000034093600868002837D0102837D0202831
:1003700037D0302837D040282BD050281ED06028C6
:1003800020D070280BD0B0F5805F03D0B0F5005FAF
:100390000CD02CE028688168C908C9000CE000F086
:1003A00027F82868816841F0770105E000F020F81F
:1003B0002868816841F48041816018E000F01DF8F0
:1003C000502111E0CA684968286800F00AF96021E4
:1003D0000AE000F012F8402106E0002104E01021BC
:1003E00002E0202100E03021286800F00CF90EE046
:1003F000CB684A68896828680DE1CA684968286836
:10040000DEE0054605F13804207801287047012018
:1004100060700020207032BD30B5644D0368644CBC
:10042000A84218BFA04201BF23F070034A681343DB
:10043000A84206D0A0421FBF5E4A90425E4A904248
:1004400003D1CA6823F4407313430360A8428A6847
:10045000C2620A68826202D10969584A11600122A7
:10046000426130BD70B5026A504E22F01002026245
:10047000B042056A436884690A6824F4E64444EAA1
:1004800002248A6825F0200545EA02150DD1CA68C4
:100490004E6925F0800545EA02158A6923F4406318
:1004A000164325F0400543EA8603436084614968AA
:1004B0008163056270BD000010B5036A01248C40A1
:1004C000A343036202FA01F1036A87E030B5026ACE
:1004D000520852000262056A4368846900F03DF8E0
:1004E00025F002051543314A90420BD123F44073A5
:1004F000CA6825F0080515434A6913438A6925F03F
:10050000040513434360846149684163056230BD5B
:1005100070B5026A254E22F480720262056A436851
:10052000C46900F01AF825F40075B04245EA0225C6
:100530000DD1CA684E6925F4006545EA02258A692D
:1005400023F44053164325F4806543EA06134360C1
:10055000C4614968C163056270BD0A6824F0730410
:1005600014438A68704770B5026A104E22F48052B4
:100570000262B042046A4268C3690D6823F4E6432C
:1005800043EA05238D6824F4005444EA053404D179
:100590004D6922F4804242EA85124260C361496893
:1005A0000164046270BD00008800FFFF000001408C
:1005B000000C004000400140004801403000014074
:1005C00010B5036A046A64086400046223F00A0335
:1005D000846924F0F00444EA02148461194301623E
:1005E00010BD10B5036A23F0100303628369046A27
:1005F00023F4704343EA023324F0A004836144EA05
:100600000114046210BD826822F07002114341F0AF
:1006100007018160704710B5846824F47F4421434A
:10062000114341EA0321816010BD000080B5002024
:10063000009000223648416841F4804141604168A1
:1006400001F48041009100990092036843F08053C7
:100650000360006800F0805000900098032000F0D4
:1006600070F8002200216FF00B0000F077F80022F4
:1006700000216FF00A0000F071F8002200216FF0F5
:10068000090000F06BF8002200216FF0040000F078
:1006900065F8002200216FF0030000F05FF80022EF
:1006A00000216FF0010000F059F8BDE80840002279
:1006B00000214FF0FF3000F051B881B000681549BB
:1006C00088420BD1002114480091026842F00102D7
:1006D0000260006800F001000090009801B07047CF
:1006E00000680C49884200D0704700B585B04FF4CF
:1006F000E06100910220002102910391019001210B
:1007000004916946054800F075F805B000BD000089
:1007100040380240000001404438024000000240DE
:10072000704700000901020081B006D52A4A00F096
:100730000F00104400F8041C01E0284B195401B0CC
:100740007047274A13684FF6FF0100020B4000F480
:10075000E0601843234908431060704738B5204BC8
:100760001C68C4F30223C3F10704052C28BF04242A
:100770001D1D072D34BF0023DB1E012505FA04F4DF
:10078000641E2140994005FA03F35B1E1A40114391
:10079000BDE83440C6E710B5401EB0F1807F01D3FC
:1007A000012010BD104C60600F214FF0FF30FFF7AB
:1007B000B9FF0022A26007202060002010BD04289D
:1007C000094904D1086840F00400086070470A68CD
:1007D00022F004020A60704718ED00E000E400E037
:1007E0000CED00E00000FA0510E000E000F000B8B9
:1007F000704700002DE9F84F4FF0000E604A614B42
:10080000DFF884814FF00F0906468A460121DAF8A5
:10081000004001FA0EF10C408C4240F0A380DAF85F
:100820000450022D18BF122D4FEA8E0012D14FEA4C
:10083000DE0506EB850C00F01C05DCF8207009FADB
:1008400005FB27EA0B07DAF810B00BFA05F53D4374
:10085000CCF820504FEA4E0C032537689AF804B0C4
:1008600005FA0CF5ED430BF0030B2F400BFA0CFBD4
:100870004BEA07073760DAF80470012F18BF022F20
:1008800003D0112F18BF122F13D1B768DAF80CB0AC
:100890002F400BFA0CFB4BEA0707B760776827EA93
:1008A0000101DAF80470C7F3001707FA0EF73943AD
:1008B0007160F1680D40DAF8081001FA0CF1294373
:1008C000F160DAF80410C9004CD50025009500F05D
:1008D0000C00D8F8001041F48041C8F8001009FA63
:1008E00000F7D8F8005005F48045009500994FEACC
:1008F0009E0153F8215025EA0707244DAE4208BF58
:10090000002509D0224DAE4208BF012504D0214D5B
:10091000AE420CBF0225072505FA00F0384343F824
:100920002100E0431168DAF804500140ED0348BFAC
:10093000214311605168DAF804500140AD0348BF0B
:10094000214351609168DAF804500140ED0248BF3C
:1009500021439160D1680140DAF80400800248BF69
:100960002143D1600EF1010EBEF10F0F7FF64EAFA5
:10097000BDE8F18F81B002B90904816101B070470F
:10098000003C014008380140443802400000024069
:1009900000040240000802402DE9F8430646DFF853
:1009A000E0523078C10741D5A86800F00C00042857
:1009B00007D0A86800F00C0008280BD16868410235
:1009C00008D52968880331D57068002840F0B480C4
:1009D00001204DE17068B0F5803F06D0B0F5A02F42
:1009E000296807D141F480212960286840F48030CB
:1009F000286006E021F4803129602A6822F48022F0
:100A00002A60706868B100F041F9044629688803DB
:100A100000F1928000F03AF9001B6528F6D303201C
:100A200026E100F033F904462868810340F1848010
:100A300000F02CF9001B6528F6D3F0E700F026F94A
:100A4000001B022840F2A580E9E7F06870B101219F
:100A5000396000F01BF904462868810700F1C9805D
:100A600000F014F9001B0228F6D9D8E7386000F02E
:100A70000DF904462868810761D500F007F9001BCD
:100A80000228F7D9CBE7086000F000F90446686F48
:100A9000810773D500F0FAF8001B0228F7D9BEE7EA
:100AA0000528286F06D140F004002867286F40F021
:100AB000010005E0400840002867286F20F004008E
:100AC000286741F28938B06868B100F0DFF88146E4
:100AD000286F810700F19A8000F0D8F8A0EB090098
:100AE0004045F5D39BE700F0D1F88146286F810798
:100AF00040F18C8000F0CAF8A0EB09004045F5D326
:100B00008DE700F0C3F8001B022840F2928086E7D0
:100B100000F0BCF8001B022840F2A5807FE700F03F
:100B2000A9F804462868810140F1A18000F0AEF8E0
:100B3000001B0228F6D972E73078524F81071BD587
:100B4000A86810F00C0F09D0A86800F00C00082865
:100B50007FF47BAF686841023FF577AF296888076B
:100B600003D5F06801287FF433AF2968306921F09C
:100B7000F80141EAC0012960317808070DD5706994
:100B8000414900283FF47FAF01220A6000F07EF85F
:100B90000446686F81077FF551AF317848073AD531
:100BA000286C0024C1000AD400940124286C40F071
:100BB00080502864286C00F0805000900098DFF886
:100BC000BC80D8F80010C8051BD4D8F8000040F449
:100BD0008070C8F8000000F059F88146D8F800107D
:100BE000C8050ED400F052F8A0EB09000228F5D990
:100BF00015E72868316920F0F80040EAC100286054
:100C0000BAE7B06801287FF44BAF4FE71CB1286CFE
:100C100020F080502864B06948B3A96801F00C0145
:100C200008293FF4D5AE02287FF479AF00F022F80E
:100C30000446286881013FF564AFF169306AB26A01
:100C40000143706A520841EA8011521EF06A41EA7B
:100C50000241326B41EA006141EA027169600120A0
:100C600000F009F80446286881017FF551AF0020A3
:100C7000BDE8F2830020386600F008B8007000403C
:100C80000038024000004742800E47420148406859
:100C9000704700BF00000020B3BBD9B1B2F5803F60
:100CA0007DD2022A1ED98C46B1FBF2F102FB11C3A0
:100CB0001B0443EA1043B3FBF2FC02FB1C3380B27B
:100CC00040EA0343B3FBF2F002FB103240EA0C406F
:100CD00000237047022A05D98446B0FBF2F002FBDC
:100CE00010C270474AB105D100F0010249085FEA1D
:100CF0003000704700220023704700F0E5B80B0079
:100D00000200002100207047904271EB030CF6D3E3
:100D1000B3F5803F2FD2F0B5B3FA83F7B1FA81F47F
:100D2000A7F10F0E3D1B5340CEF1200602FA0EF242
:100D3000F3415340B5F10F0746D80F3C2C444140D6
:100D4000C4F12006A040F1414140B1FBF3F603FBA2
:100D50001611A2FB0645001BA94102D2761E80187F
:100D6000594180EA010221FA0EF362FA0EF20021E3
:100D70005A403046F0BD30B4B1FBF3FC03FB1C110C
:100D8000A2FB0C45001BA94103D2ACF1010C801859
:100D9000594130BC02460B46604600217047B2F113
:100DA000807F65D3F0B5B2FA82F7B1FA81F4C7F16A
:100DB0000F063D1B22FA06F307F1110EF241203512
:100DC0005A40B5F10F07B8D94140C4F12006A04000
:100DD000F1414140B1FBF3FC03FB1C11A2FB0C45AC
:100DE000001BA94103D2BCF1010C801859410F2FFF
:100DF00012D30F3FC90341EA5041B1FBF3F603FBA5
:100E00001611A2FB0645D4EBC030A94102D2761ED2
:100E10008018594146EACC3C07B34140C7F120064F
:100E2000B840F1414140B1FBF3F603FB1611A2FBC0
:100E30000645001BA94102D2761E8018594180EA5E
:100E4000010221FA0EF3C7F1200462FA0EF20CFA45
:100E500007F05A402CFA04F13043F0BD80EA010259
:100E600021FA0EF3002162FA0EF260465A40F0BDFC
:100E70008C46B1FBF2F102FB11C31B0243EA106383
:100E8000B3FBF2FC02FB1C331B024CEA002043EADA
:100E90001063B3FBF2FC02FB1C331B024CEA002084
:100EA00043EA1063B3FBF2FC02FB1C331B024CEA67
:100EB000002043EA1063B3FBF2FC02FB1C324CEA55
:100EC00000200023704700007047000010B586B076
:100ED00000F0E2F800F02DF80020009000226648B3
:100EE000664C016841F0010101602021006800F0BA
:100EF0000100009000982046FFF73CFD2020019063
:100F00000121002002910390049001A92046FFF7DF
:100F100071FC00F054F85A4C00212046FFF778F994
:100F200004212046FFF774F908212046FFF770F9E5
:100F3000FEE700B593B0002000905248016841F0F0
:100F4000805101600021006800F0805000900098FE
:100F50004D4800910221026842F4404202600122A1
:100F6000006800F4404000900098069110200A901C
:100F7000002109920C9106A8FFF70EFD00B1FEE7D3
:100F80000F2101910290002104900391059101A885
:100F900000F09CF800B1FEE700F01DF94FF47A7103
:100FA000B0FBF1F0FFF7F7FB0420FFF708FC00228D
:100FB00000214FF0FF30FFF7D1FB13B000BD3348E5
:100FC00010B52F4C20600F20606094B00020A0600E
:100FD0006320E0600020206160612046FFF7F4F8A4
:100FE00000B1FEE74FF48050109010A92046FFF7A3
:100FF000A9F900B1FEE72046FFF7FDF800B1FEE7D2
:101000000021009001912046694600F01BF900B1D3
:10101000FEE7602002901E210020039104900590BD
:10102000069007900890002200F032F800B1FEE729
:1010300046200390042200F02BF800B1FEE7322096
:101040000390082200F024F800B1FEE700210A9185
:101050000C9109904FF400510B900D900E910F9050
:1010600009A9204600F013F900B1FEE72046FFF77A
:1010700037FB14B010BD00003038024000000240C1
:101080001000002040380240007000400000014085
:1010900002A92046FFF7E2B880B50B48016841F489
:1010A00000710160026842F480620260016841F4EC
:1010B000807101600320FFF744FB002000F014F969
:1010C000FFF7B4FA002002BD003C02402DE9F843CE
:1010D00004000F4677D0414E306800F00F00B84250
:1010E00002D200F072F86ED120683D4D810712D512
:1010F000400703D5A86840F4E050A86021780807AD
:1011000003D5A86840F46040A860A968A06821F0F1
:10111000F0010143A9602078C1074CD5606801281F
:1011200002D129688A0305E0022818BF032803D1E9
:1011300029688A0103D446E02A68910743D5A96843
:10114000890840EA8100A86041F28939FFF79EFDD5
:101150008046A868616800F00C00B0EB810F2AD0CF
:10116000FFF794FDA0EB08004845F2D3032020E0F0
:101170002078410705D5A968E06821F4E0510143D2
:10118000A9602078010706D5A868216920F460408D
:1011900040EAC100A86000F029F8AA681149C2F32A
:1011A0000312895C104AC8401060002000F09CF8CF
:1011B0000020BDE8F283306800F00F008742D7D2EC
:1011C00000F003F8D4D00120F3E73770316801F064
:1011D0000F01B9427047044800687047003C024064
:1011E00000380240781300080C00002018B5124C9B
:1011F000606800F00C00042802D0082802D019E032
:101200000E4812BD00232268206841022068C0F306
:1012100088104CBF09490A4902F03F02A1FB0001B6
:10122000FFF73AFD2168C1F30141491C4900B0FBB9
:10123000F1F012BD024812BD0438024040787D0131
:101240000024F40030B500F138031A78012A01D1E6
:10125000022030BD01241C7002225A7002685468BA
:1012600024F070045460046865680A68154365607A
:101270000268946824F08004946002689468486866
:1012800004439460012058700020187030BD30B5C0
:1012900090F83820012A01D1022030BD012380F8C6
:1012A0003830CD688B684A688C6925F440751D43D9
:1012B00025F4806515430B680A69496925F40065C2
:1012C0001D4325F48055154325F400550D4325F4A1
:1012D00080452543026825F400452C4354640021D1
:1012E00080F83810002030BD38B50D4D0D4A2978F2
:1012F00004464FF47A70B0FBF1F11068B0FBF1F0E6
:10130000FFF749FA50B9102C08D2002221464FF0BD
:10131000FF30FFF723FAAC60002032BD012032BD60
:10132000000000200C0000200E48016841F470010C
:10133000016000220C49086840F0010008608A60E2
:101340000A480A6802400A600022094848600868A2
:1013500020F480200860CA604FF0006005490860F2
:101360007047000088ED00E000380240FFFFF6FE05
:101370001030002408ED00E0000000000000000034
:10138000010203040607080930B5016884684218A1
:10139000416802EB5103C9070BD54C4409E012F92F
:1013A000011B12F8015B002904F8015B05D5491CFB
:1013B000F9D19A42F3D10C3030BD491EF1D5F8E78E
:1013C00010B5074979441831064C7C44163404E0C2
:1013D0000A68081D114488470146A142F8D110BD92
:1013E0002C000000380000004EF68851CEF20001BB
:1013F000086840F470000860BFF34F8FBFF36F8F31
:101400004FF00070E1EE100A704700007DFFFFFF13
:10141000700100001A000000000000207047FEE785
:10142000FEE7FEE7FEE770477047704780B500F0C3
:1014300005F8BDE80140FFF7D9B90000024841684E
:1014400002788918416070470000002000F00DF814
:10145000002801D0FFF7B4FFAFF300800020AFF306
:101460000080FFF733FD00F002F80120704700F024
:1014700001B800000746384600F002F8FBE700001C
:1014800080B5AFF30080024A11001820ABBEFBE725
:101490002600020001488047014800472913000840
:1014A000A5140008AFF30080FFF79EFFFFF7CEFF03
:1014B000FFF7FEBFFFF7FEBFFFF7FEBFFFF7FEBF60
:1014C000FFF7FEBFFFF7FEBFFFF7FEBFFFF7FEBF50
:1014D000FFF7FEBFFFF7FEBFFFF7FEBFFFF7FEBF40
:1014E000FFF7FEBFFFF7FEBFFFF7FEBFFFF7FEBF30
:1014F000FFF7FEBFFFF7FEBFFFF7FEBFFFF7FEBF20
:10150000FFF7FEBFFFF7FEBFFFF7FEBFFFF7FEBF0F
:10151000FFF7FEBFFFF7FEBFFFF7FEBFFFF7FEBFFF
:10152000FFF7FEBFFFF7FEBFFFF7FEBFFFF7FEBFEF
:10153000FFF7FEBFFFF7FEBFFFF7FEBFFFF7FEBFDF
:10154000FFF7FEBFFFF7FEBFFFF7FEBFFFF7FEBFCF
:10155000FFF7FEBFFFF7FEBFFFF7FEBFFFF7FEBFBF
:10156000FFF7FEBFFFF7FEBFFFF7FEBFFFF7FEBFAF
:10157000FFF7FEBFFFF7FEBFFFF7FEBFFFF7FEBF9F
:0D1580000001F9000010FC000124F4C3007C
:04000005080014A536
:00000001FF
